{
  "contractName": "Voting",
  "abi": [
    {
      "anonymous": false,
      "inputs": [
        {
          "indexed": true,
          "internalType": "address",
          "name": "previousOwner",
          "type": "address"
        },
        {
          "indexed": true,
          "internalType": "address",
          "name": "newOwner",
          "type": "address"
        }
      ],
      "name": "OwnershipTransferred",
      "type": "event"
    },
    {
      "anonymous": false,
      "inputs": [
        {
          "indexed": false,
          "internalType": "uint256",
          "name": "_proposalId",
          "type": "uint256"
        }
      ],
      "name": "ProposalRegistered",
      "type": "event"
    },
    {
      "anonymous": false,
      "inputs": [
        {
          "indexed": false,
          "internalType": "address",
          "name": "_voter",
          "type": "address"
        },
        {
          "indexed": false,
          "internalType": "uint256",
          "name": "_proposalId",
          "type": "uint256"
        }
      ],
      "name": "Voted",
      "type": "event"
    },
    {
      "anonymous": false,
      "inputs": [
        {
          "indexed": false,
          "internalType": "address",
          "name": "_voterAddress",
          "type": "address"
        }
      ],
      "name": "VoterRegistered",
      "type": "event"
    },
    {
      "anonymous": false,
      "inputs": [
        {
          "indexed": false,
          "internalType": "enum Voting.WorkflowStatus",
          "name": "_previousStatus",
          "type": "uint8"
        },
        {
          "indexed": false,
          "internalType": "enum Voting.WorkflowStatus",
          "name": "_newStatus",
          "type": "uint8"
        }
      ],
      "name": "WorkflowStatusChange",
      "type": "event"
    },
    {
      "inputs": [],
      "name": "owner",
      "outputs": [
        {
          "internalType": "address",
          "name": "",
          "type": "address"
        }
      ],
      "stateMutability": "view",
      "type": "function",
      "constant": true
    },
    {
      "inputs": [],
      "name": "renounceOwnership",
      "outputs": [],
      "stateMutability": "nonpayable",
      "type": "function"
    },
    {
      "inputs": [
        {
          "internalType": "address",
          "name": "newOwner",
          "type": "address"
        }
      ],
      "name": "transferOwnership",
      "outputs": [],
      "stateMutability": "nonpayable",
      "type": "function"
    },
    {
      "inputs": [],
      "name": "winningProposalId",
      "outputs": [
        {
          "internalType": "uint256",
          "name": "",
          "type": "uint256"
        }
      ],
      "stateMutability": "view",
      "type": "function",
      "constant": true
    },
    {
      "inputs": [],
      "name": "workflowStatus",
      "outputs": [
        {
          "internalType": "enum Voting.WorkflowStatus",
          "name": "",
          "type": "uint8"
        }
      ],
      "stateMutability": "view",
      "type": "function",
      "constant": true
    },
    {
      "inputs": [
        {
          "internalType": "address",
          "name": "_addr",
          "type": "address"
        }
      ],
      "name": "getVoter",
      "outputs": [
        {
          "components": [
            {
              "internalType": "bool",
              "name": "isRegistered",
              "type": "bool"
            },
            {
              "internalType": "bool",
              "name": "hasVoted",
              "type": "bool"
            },
            {
              "internalType": "uint256",
              "name": "votedProposalId",
              "type": "uint256"
            },
            {
              "internalType": "uint8",
              "name": "proposalCount",
              "type": "uint8"
            }
          ],
          "internalType": "struct Voting.Voter",
          "name": "",
          "type": "tuple"
        }
      ],
      "stateMutability": "view",
      "type": "function",
      "constant": true
    },
    {
      "inputs": [
        {
          "internalType": "uint256",
          "name": "_id",
          "type": "uint256"
        }
      ],
      "name": "getOneProposal",
      "outputs": [
        {
          "components": [
            {
              "internalType": "string",
              "name": "description",
              "type": "string"
            },
            {
              "internalType": "uint256",
              "name": "voteCount",
              "type": "uint256"
            }
          ],
          "internalType": "struct Voting.Proposal",
          "name": "",
          "type": "tuple"
        }
      ],
      "stateMutability": "view",
      "type": "function",
      "constant": true
    },
    {
      "inputs": [
        {
          "internalType": "address",
          "name": "_addr",
          "type": "address"
        }
      ],
      "name": "addVoter",
      "outputs": [],
      "stateMutability": "nonpayable",
      "type": "function"
    },
    {
      "inputs": [
        {
          "internalType": "string",
          "name": "_desc",
          "type": "string"
        }
      ],
      "name": "addProposal",
      "outputs": [],
      "stateMutability": "nonpayable",
      "type": "function"
    },
    {
      "inputs": [
        {
          "internalType": "uint256",
          "name": "_id",
          "type": "uint256"
        }
      ],
      "name": "setVote",
      "outputs": [],
      "stateMutability": "nonpayable",
      "type": "function"
    },
    {
      "inputs": [],
      "name": "startProposalsRegistering",
      "outputs": [],
      "stateMutability": "nonpayable",
      "type": "function"
    },
    {
      "inputs": [],
      "name": "endProposalsRegistering",
      "outputs": [],
      "stateMutability": "nonpayable",
      "type": "function"
    },
    {
      "inputs": [],
      "name": "startVotingSession",
      "outputs": [],
      "stateMutability": "nonpayable",
      "type": "function"
    },
    {
      "inputs": [],
      "name": "endVotingSession",
      "outputs": [],
      "stateMutability": "nonpayable",
      "type": "function"
    },
    {
      "inputs": [],
      "name": "tallyVotes",
      "outputs": [],
      "stateMutability": "nonpayable",
      "type": "function"
    }
  ],
  "bytecode": "0x60806040523480156200001157600080fd5b50620000446200002f6200004a640100000000026401000000009004565b62000052640100000000026401000000009004565b62000116565b600033905090565b60008060009054906101000a900473ffffffffffffffffffffffffffffffffffffffff169050816000806101000a81548173ffffffffffffffffffffffffffffffffffffffff021916908373ffffffffffffffffffffffffffffffffffffffff1602179055508173ffffffffffffffffffffffffffffffffffffffff168173ffffffffffffffffffffffffffffffffffffffff167f8be0079c531659141344cd1fd0a4f28419497f9722a3daafe3b4186f6b6457e060405160405180910390a35050565b6127b580620001266000396000f3fe608060405234801561001057600080fd5b5060043610610112576000357c010000000000000000000000000000000000000000000000000000000090048063a7bfab16116100b4578063d4f50f9811610083578063d4f50f981461020b578063ee74c6781461023b578063f2fde38b14610245578063f4ab9adf1461026157610112565b8063a7bfab16146101cf578063c64963c5146101d9578063c7038a4e146101f7578063c88af42f1461020157610112565b8063715018a6116100f0578063715018a6146101595780638da5cb5b14610163578063a1edffa214610181578063a2788cce1461019f57610112565b8063230796ae146101175780632fdae3c514610133578063378a21781461014f575b600080fd5b610131600480360381019061012c91906118a1565b61027d565b005b61014d60048036038101906101489190611a14565b610579565b005b6101576108cb565b005b610161610aac565b005b61016b610b34565b6040516101789190611a9e565b60405180910390f35b610189610b5d565b6040516101969190611b30565b60405180910390f35b6101b960048036038101906101b491906118a1565b610b70565b6040516101c69190611c1f565b60405180910390f35b6101d7610cd7565b005b6101e1610e31565b6040516101ee9190611c50565b60405180910390f35b6101ff610e37565b005b610209610f91565b005b61022560048036038101906102209190611c97565b6110ea565b6040516102329190611d50565b60405180910390f35b61024361122f565b005b61025f600480360381019061025a9190611c97565b611389565b005b61027b60048036038101906102769190611c97565b611481565b005b600460003373ffffffffffffffffffffffffffffffffffffffff1673ffffffffffffffffffffffffffffffffffffffff16815260200190815260200160002060000160009054906101000a900460ff1661030c576040517f08c379a000000000000000000000000000000000000000000000000000000000815260040161030390611dc8565b60405180910390fd5b600360058111156103205761031f611ab9565b5b600260009054906101000a900460ff16600581111561034257610341611ab9565b5b14610382576040517f08c379a000000000000000000000000000000000000000000000000000000000815260040161037990611e5a565b60405180910390fd5b60011515600460003373ffffffffffffffffffffffffffffffffffffffff1673ffffffffffffffffffffffffffffffffffffffff16815260200190815260200160002060000160019054906101000a900460ff1615151415610419576040517f08c379a000000000000000000000000000000000000000000000000000000000815260040161041090611ec6565b60405180910390fd5b6003805490508110610460576040517f08c379a000000000000000000000000000000000000000000000000000000000815260040161045790611f32565b60405180910390fd5b80600460003373ffffffffffffffffffffffffffffffffffffffff1673ffffffffffffffffffffffffffffffffffffffff168152602001908152602001600020600101819055506001600460003373ffffffffffffffffffffffffffffffffffffffff1673ffffffffffffffffffffffffffffffffffffffff16815260200190815260200160002060000160016101000a81548160ff0219169083151502179055506003818154811061051657610515611f52565b5b9060005260206000209060020201600101600081548092919061053890611fb0565b91905055507f4d99b957a2bc29a30ebd96a7be8e68fe50a3c701db28a91436490b7d53870ca4338260405161056e929190611ff9565b60405180910390a150565b600460003373ffffffffffffffffffffffffffffffffffffffff1673ffffffffffffffffffffffffffffffffffffffff16815260200190815260200160002060000160009054906101000a900460ff16610608576040517f08c379a00000000000000000000000000000000000000000000000000000000081526004016105ff90611dc8565b60405180910390fd5b6001600581111561061c5761061b611ab9565b5b600260009054906101000a900460ff16600581111561063e5761063d611ab9565b5b1461067e576040517f08c379a00000000000000000000000000000000000000000000000000000000081526004016106759061206e565b60405180910390fd5b60405160200161068d906120b4565b60405160208183030381529060405280519060200120816040516020016106b4919061210d565b60405160208183030381529060405280519060200120141561070b576040517f08c379a0000000000000000000000000000000000000000000000000000000008152600401610702906121a1565b60405180910390fd5b6005600460003373ffffffffffffffffffffffffffffffffffffffff1673ffffffffffffffffffffffffffffffffffffffff16815260200190815260200160002060020160009054906101000a900460ff1660ff1611156107a1576040517f08c379a000000000000000000000000000000000000000000000000000000000815260040161079890612233565b60405180910390fd5b6107a961176b565b818160000181905250600381908060018154018082558091505060019003906000526020600020906002020160009091909190915060008201518160000190805190602001906107fa929190611785565b50602082015181600101555050600460003373ffffffffffffffffffffffffffffffffffffffff1673ffffffffffffffffffffffffffffffffffffffff168152602001908152602001600020600201600081819054906101000a900460ff168092919061086690612253565b91906101000a81548160ff021916908360ff160217905550507f92e393e9b54e2f801d3ea4beb0c5e71a21cc34a5d34b77d0fb8a3aa1650dc18f60016003805490506108b2919061227d565b6040516108bf9190611c50565b60405180910390a15050565b6108d361169f565b73ffffffffffffffffffffffffffffffffffffffff166108f1610b34565b73ffffffffffffffffffffffffffffffffffffffff1614610947576040517f08c379a000000000000000000000000000000000000000000000000000000000815260040161093e906122fd565b60405180910390fd5b6004600581111561095b5761095a611ab9565b5b600260009054906101000a900460ff16600581111561097d5761097c611ab9565b5b146109bd576040517f08c379a00000000000000000000000000000000000000000000000000000000081526004016109b49061238f565b60405180910390fd5b600080600090505b600380549050811015610a3b57600382815481106109e6576109e5611f52565b5b90600052602060002090600202016001015460038281548110610a0c57610a0b611f52565b5b9060005260206000209060020201600101541115610a28578091505b8080610a3390611fb0565b9150506109c5565b50806001819055506005600260006101000a81548160ff02191690836005811115610a6957610a68611ab9565b5b02179055507f0a97a4ee45751e2abf3e4fc8946939630b11b371ea8ae39ccdc3056e98f5cc3f60046005604051610aa19291906123af565b60405180910390a150565b610ab461169f565b73ffffffffffffffffffffffffffffffffffffffff16610ad2610b34565b73ffffffffffffffffffffffffffffffffffffffff1614610b28576040517f08c379a0000000000000000000000000000000000000000000000000000000008152600401610b1f906122fd565b60405180910390fd5b610b3260006116a7565b565b60008060009054906101000a900473ffffffffffffffffffffffffffffffffffffffff16905090565b600260009054906101000a900460ff1681565b610b7861176b565b600460003373ffffffffffffffffffffffffffffffffffffffff1673ffffffffffffffffffffffffffffffffffffffff16815260200190815260200160002060000160009054906101000a900460ff16610c07576040517f08c379a0000000000000000000000000000000000000000000000000000000008152600401610bfe90611dc8565b60405180910390fd5b60038281548110610c1b57610c1a611f52565b5b9060005260206000209060020201604051806040016040529081600082018054610c4490612407565b80601f0160208091040260200160405190810160405280929190818152602001828054610c7090612407565b8015610cbd5780601f10610c9257610100808354040283529160200191610cbd565b820191906000526020600020905b815481529060010190602001808311610ca057829003601f168201915b505050505081526020016001820154815250509050919050565b610cdf61169f565b73ffffffffffffffffffffffffffffffffffffffff16610cfd610b34565b73ffffffffffffffffffffffffffffffffffffffff1614610d53576040517f08c379a0000000000000000000000000000000000000000000000000000000008152600401610d4a906122fd565b60405180910390fd5b60036005811115610d6757610d66611ab9565b5b600260009054906101000a900460ff166005811115610d8957610d88611ab9565b5b14610dc9576040517f08c379a0000000000000000000000000000000000000000000000000000000008152600401610dc090611e5a565b60405180910390fd5b6004600260006101000a81548160ff02191690836005811115610def57610dee611ab9565b5b02179055507f0a97a4ee45751e2abf3e4fc8946939630b11b371ea8ae39ccdc3056e98f5cc3f60036004604051610e279291906123af565b60405180910390a1565b60015481565b610e3f61169f565b73ffffffffffffffffffffffffffffffffffffffff16610e5d610b34565b73ffffffffffffffffffffffffffffffffffffffff1614610eb3576040517f08c379a0000000000000000000000000000000000000000000000000000000008152600401610eaa906122fd565b60405180910390fd5b60006005811115610ec757610ec6611ab9565b5b600260009054906101000a900460ff166005811115610ee957610ee8611ab9565b5b14610f29576040517f08c379a0000000000000000000000000000000000000000000000000000000008152600401610f20906124ab565b60405180910390fd5b6001600260006101000a81548160ff02191690836005811115610f4f57610f4e611ab9565b5b02179055507f0a97a4ee45751e2abf3e4fc8946939630b11b371ea8ae39ccdc3056e98f5cc3f60006001604051610f879291906123af565b60405180910390a1565b610f9961169f565b73ffffffffffffffffffffffffffffffffffffffff16610fb7610b34565b73ffffffffffffffffffffffffffffffffffffffff161461100d576040517f08c379a0000000000000000000000000000000000000000000000000000000008152600401611004906122fd565b60405180910390fd5b6001600581111561102157611020611ab9565b5b600260009054906101000a900460ff16600581111561104357611042611ab9565b5b14611083576040517f08c379a000000000000000000000000000000000000000000000000000000000815260040161107a9061253d565b60405180910390fd5b60028060006101000a81548160ff021916908360058111156110a8576110a7611ab9565b5b02179055507f0a97a4ee45751e2abf3e4fc8946939630b11b371ea8ae39ccdc3056e98f5cc3f600160026040516110e09291906123af565b60405180910390a1565b6110f261180b565b600460003373ffffffffffffffffffffffffffffffffffffffff1673ffffffffffffffffffffffffffffffffffffffff16815260200190815260200160002060000160009054906101000a900460ff16611181576040517f08c379a000000000000000000000000000000000000000000000000000000000815260040161117890611dc8565b60405180910390fd5b600460008373ffffffffffffffffffffffffffffffffffffffff1673ffffffffffffffffffffffffffffffffffffffff1681526020019081526020016000206040518060800160405290816000820160009054906101000a900460ff161515151581526020016000820160019054906101000a900460ff16151515158152602001600182015481526020016002820160009054906101000a900460ff1660ff1660ff16815250509050919050565b61123761169f565b73ffffffffffffffffffffffffffffffffffffffff16611255610b34565b73ffffffffffffffffffffffffffffffffffffffff16146112ab576040517f08c379a00000000000000000000000000000000000000000000000000000000081526004016112a2906122fd565b60405180910390fd5b600260058111156112bf576112be611ab9565b5b600260009054906101000a900460ff1660058111156112e1576112e0611ab9565b5b14611321576040517f08c379a0000000000000000000000000000000000000000000000000000000008152600401611318906125cf565b60405180910390fd5b6003600260006101000a81548160ff0219169083600581111561134757611346611ab9565b5b02179055507f0a97a4ee45751e2abf3e4fc8946939630b11b371ea8ae39ccdc3056e98f5cc3f6002600360405161137f9291906123af565b60405180910390a1565b61139161169f565b73ffffffffffffffffffffffffffffffffffffffff166113af610b34565b73ffffffffffffffffffffffffffffffffffffffff1614611405576040517f08c379a00000000000000000000000000000000000000000000000000000000081526004016113fc906122fd565b60405180910390fd5b600073ffffffffffffffffffffffffffffffffffffffff168173ffffffffffffffffffffffffffffffffffffffff161415611475576040517f08c379a000000000000000000000000000000000000000000000000000000000815260040161146c90612661565b60405180910390fd5b61147e816116a7565b50565b61148961169f565b73ffffffffffffffffffffffffffffffffffffffff166114a7610b34565b73ffffffffffffffffffffffffffffffffffffffff16146114fd576040517f08c379a00000000000000000000000000000000000000000000000000000000081526004016114f4906122fd565b60405180910390fd5b6000600581111561151157611510611ab9565b5b600260009054906101000a900460ff16600581111561153357611532611ab9565b5b14611573576040517f08c379a000000000000000000000000000000000000000000000000000000000815260040161156a906126f3565b60405180910390fd5b60011515600460008373ffffffffffffffffffffffffffffffffffffffff1673ffffffffffffffffffffffffffffffffffffffff16815260200190815260200160002060000160009054906101000a900460ff161515141561160a576040517f08c379a00000000000000000000000000000000000000000000000000000000081526004016116019061275f565b60405180910390fd5b6001600460008373ffffffffffffffffffffffffffffffffffffffff1673ffffffffffffffffffffffffffffffffffffffff16815260200190815260200160002060000160006101000a81548160ff0219169083151502179055507fb6be2187d059cc2a55fe29e0e503b566e1e0f8c8780096e185429350acffd3dd816040516116949190611a9e565b60405180910390a150565b600033905090565b60008060009054906101000a900473ffffffffffffffffffffffffffffffffffffffff169050816000806101000a81548173ffffffffffffffffffffffffffffffffffffffff021916908373ffffffffffffffffffffffffffffffffffffffff1602179055508173ffffffffffffffffffffffffffffffffffffffff168173ffffffffffffffffffffffffffffffffffffffff167f8be0079c531659141344cd1fd0a4f28419497f9722a3daafe3b4186f6b6457e060405160405180910390a35050565b604051806040016040528060608152602001600081525090565b82805461179190612407565b90600052602060002090601f0160209004810192826117b357600085556117fa565b82601f106117cc57805160ff19168380011785556117fa565b828001600101855582156117fa579182015b828111156117f95782518255916020019190600101906117de565b5b509050611807919061183a565b5090565b604051806080016040528060001515815260200160001515815260200160008152602001600060ff1681525090565b5b8082111561185357600081600090555060010161183b565b5090565b6000604051905090565b600080fd5b600080fd5b6000819050919050565b61187e8161186b565b811461188957600080fd5b50565b60008135905061189b81611875565b92915050565b6000602082840312156118b7576118b6611861565b5b60006118c58482850161188c565b91505092915050565b600080fd5b600080fd5b6000601f19601f8301169050919050565b7f4e487b7100000000000000000000000000000000000000000000000000000000600052604160045260246000fd5b611921826118d8565b810181811067ffffffffffffffff821117156119405761193f6118e9565b5b80604052505050565b6000611953611857565b905061195f8282611918565b919050565b600067ffffffffffffffff82111561197f5761197e6118e9565b5b611988826118d8565b9050602081019050919050565b82818337600083830152505050565b60006119b76119b284611964565b611949565b9050828152602081018484840111156119d3576119d26118d3565b5b6119de848285611995565b509392505050565b600082601f8301126119fb576119fa6118ce565b5b8135611a0b8482602086016119a4565b91505092915050565b600060208284031215611a2a57611a29611861565b5b600082013567ffffffffffffffff811115611a4857611a47611866565b5b611a54848285016119e6565b91505092915050565b600073ffffffffffffffffffffffffffffffffffffffff82169050919050565b6000611a8882611a5d565b9050919050565b611a9881611a7d565b82525050565b6000602082019050611ab36000830184611a8f565b92915050565b7f4e487b7100000000000000000000000000000000000000000000000000000000600052602160045260246000fd5b60068110611af957611af8611ab9565b5b50565b6000819050611b0a82611ae8565b919050565b6000611b1a82611afc565b9050919050565b611b2a81611b0f565b82525050565b6000602082019050611b456000830184611b21565b92915050565b600081519050919050565b600082825260208201905092915050565b60005b83811015611b85578082015181840152602081019050611b6a565b83811115611b94576000848401525b50505050565b6000611ba582611b4b565b611baf8185611b56565b9350611bbf818560208601611b67565b611bc8816118d8565b840191505092915050565b611bdc8161186b565b82525050565b60006040830160008301518482036000860152611bff8282611b9a565b9150506020830151611c146020860182611bd3565b508091505092915050565b60006020820190508181036000830152611c398184611be2565b905092915050565b611c4a8161186b565b82525050565b6000602082019050611c656000830184611c41565b92915050565b611c7481611a7d565b8114611c7f57600080fd5b50565b600081359050611c9181611c6b565b92915050565b600060208284031215611cad57611cac611861565b5b6000611cbb84828501611c82565b91505092915050565b60008115159050919050565b611cd981611cc4565b82525050565b600060ff82169050919050565b611cf581611cdf565b82525050565b608082016000820151611d116000850182611cd0565b506020820151611d246020850182611cd0565b506040820151611d376040850182611bd3565b506060820151611d4a6060850182611cec565b50505050565b6000608082019050611d656000830184611cfb565b92915050565b600082825260208201905092915050565b7f596f7520617265206e6f74206120766f74657200000000000000000000000000600082015250565b6000611db2601383611d6b565b9150611dbd82611d7c565b602082019050919050565b60006020820190508181036000830152611de181611da5565b9050919050565b7f566f74696e672073657373696f6e20686176656e74207374617274656420796560008201527f7400000000000000000000000000000000000000000000000000000000000000602082015250565b6000611e44602183611d6b565b9150611e4f82611de8565b604082019050919050565b60006020820190508181036000830152611e7381611e37565b9050919050565b7f596f75206861766520616c726561647920766f74656400000000000000000000600082015250565b6000611eb0601683611d6b565b9150611ebb82611e7a565b602082019050919050565b60006020820190508181036000830152611edf81611ea3565b9050919050565b7f50726f706f73616c206e6f7420666f756e640000000000000000000000000000600082015250565b6000611f1c601283611d6b565b9150611f2782611ee6565b602082019050919050565b60006020820190508181036000830152611f4b81611f0f565b9050919050565b7f4e487b7100000000000000000000000000000000000000000000000000000000600052603260045260246000fd5b7f4e487b7100000000000000000000000000000000000000000000000000000000600052601160045260246000fd5b6000611fbb8261186b565b91507fffffffffffffffffffffffffffffffffffffffffffffffffffffffffffffffff821415611fee57611fed611f81565b5b600182019050919050565b600060408201905061200e6000830185611a8f565b61201b6020830184611c41565b9392505050565b7f50726f706f73616c7320617265206e6f7420616c6c6f77656420796574000000600082015250565b6000612058601d83611d6b565b915061206382612022565b602082019050919050565b600060208201905081810360008301526120878161204b565b9050919050565b50565b600061209e600083611d6b565b91506120a98261208e565b600082019050919050565b600060208201905081810360008301526120cd81612091565b9050919050565b60006120df82611b4b565b6120e98185611d6b565b93506120f9818560208601611b67565b612102816118d8565b840191505092915050565b6000602082019050818103600083015261212781846120d4565b905092915050565b7f566f7573206e6520706f7576657a20706173206e65207269656e2070726f706f60008201527f7365720000000000000000000000000000000000000000000000000000000000602082015250565b600061218b602383611d6b565b91506121968261212f565b604082019050919050565b600060208201905081810360008301526121ba8161217e565b9050919050565b7f566f7573206e6520706f7576657a207061732070726f706f73657220706c757360008201527f20646520352070726f706f736974696f6e730000000000000000000000000000602082015250565b600061221d603283611d6b565b9150612228826121c1565b604082019050919050565b6000602082019050818103600083015261224c81612210565b9050919050565b600061225e82611cdf565b915060ff82141561227257612271611f81565b5b600182019050919050565b60006122888261186b565b91506122938361186b565b9250828210156122a6576122a5611f81565b5b828203905092915050565b7f4f776e61626c653a2063616c6c6572206973206e6f7420746865206f776e6572600082015250565b60006122e7602083611d6b565b91506122f2826122b1565b602082019050919050565b60006020820190508181036000830152612316816122da565b9050919050565b7f43757272656e7420737461747573206973206e6f7420766f74696e672073657360008201527f73696f6e20656e64656400000000000000000000000000000000000000000000602082015250565b6000612379602a83611d6b565b91506123848261231d565b604082019050919050565b600060208201905081810360008301526123a88161236c565b9050919050565b60006040820190506123c46000830185611b21565b6123d16020830184611b21565b9392505050565b7f4e487b7100000000000000000000000000000000000000000000000000000000600052602260045260246000fd5b6000600282049050600182168061241f57607f821691505b60208210811415612433576124326123d8565b5b50919050565b7f5265676973746572696e672070726f706f73616c732063616e7420626520737460008201527f6172746564206e6f770000000000000000000000000000000000000000000000602082015250565b6000612495602983611d6b565b91506124a082612439565b604082019050919050565b600060208201905081810360008301526124c481612488565b9050919050565b7f5265676973746572696e672070726f706f73616c7320686176656e742073746160008201527f7274656420796574000000000000000000000000000000000000000000000000602082015250565b6000612527602883611d6b565b9150612532826124cb565b604082019050919050565b600060208201905081810360008301526125568161251a565b9050919050565b7f5265676973746572696e672070726f706f73616c73207068617365206973206e60008201527f6f742066696e6973686564000000000000000000000000000000000000000000602082015250565b60006125b9602b83611d6b565b91506125c48261255d565b604082019050919050565b600060208201905081810360008301526125e8816125ac565b9050919050565b7f4f776e61626c653a206e6577206f776e657220697320746865207a65726f206160008201527f6464726573730000000000000000000000000000000000000000000000000000602082015250565b600061264b602683611d6b565b9150612656826125ef565b604082019050919050565b6000602082019050818103600083015261267a8161263e565b9050919050565b7f566f7465727320726567697374726174696f6e206973206e6f74206f70656e2060008201527f7965740000000000000000000000000000000000000000000000000000000000602082015250565b60006126dd602383611d6b565b91506126e882612681565b604082019050919050565b6000602082019050818103600083015261270c816126d0565b9050919050565b7f416c726561647920726567697374657265640000000000000000000000000000600082015250565b6000612749601283611d6b565b915061275482612713565b602082019050919050565b600060208201905081810360008301526127788161273c565b905091905056fea26469706673582212206c53bbc56537c9f913bbe71ac0768d2205f529d8cdd3bf191e7371b0cf583e8d64736f6c634300080c0033",
  "immutableReferences": {},
  "source": "// SPDX-License-Identifier: MIT\n\npragma solidity 0.8.12;\nimport \"@openzeppelin/contracts/access/Ownable.sol\";\n\n\ncontract Voting is Ownable {\n\n    struct Voter {\n        bool isRegistered;\n        bool hasVoted;\n        uint votedProposalId;\n        uint8 proposalCount;\n    }\n\n    struct Proposal {\n        string description;\n        uint voteCount;\n    }\n\n    enum WorkflowStatus {\n        RegisteringVoters,\n        ProposalsRegistrationStarted,\n        ProposalsRegistrationEnded,\n        VotingSessionStarted,\n        VotingSessionEnded,\n        VotesTallied\n    }\n\n    /// @dev Id of the winning proposal\n    uint public winningProposalId;\n\n    /// @dev Current status of the voting session\n    WorkflowStatus public workflowStatus;\n\n    /// @dev Array of proposals\n    Proposal[] private proposalsArray;\n\n    /// @dev Mapping from address to voter\n    mapping (address => Voter) private voters;\n\n    event VoterRegistered(address _voterAddress);\n    event WorkflowStatusChange(WorkflowStatus _previousStatus, WorkflowStatus _newStatus);\n    event ProposalRegistered(uint _proposalId);\n    event Voted(address _voter, uint _proposalId);\n\n    /// @dev Revert if called by an unregistered voter address.\n    modifier onlyVoters() {\n        require(voters[msg.sender].isRegistered, \"You are not a voter\");\n        _;\n    }\n\n    /**\n     * @dev Return a voter associated with the address `_addr`\n     * @param _addr Voter address\n     *\n     * Requirements:\n     * - `msg.sender`must be a registered voter\n     */\n    function getVoter(address _addr) external onlyVoters view returns (Voter memory) {\n        return voters[_addr];\n    }\n\n    /**\n     * @dev Return proposal associated with the id `_id`\n     * @param _id Proposal index\n     *\n     * Requirements:\n     * - `msg.sender`must be a registered voter\n     */\n    function getOneProposal(uint _id) external onlyVoters view returns (Proposal memory) {\n        return proposalsArray[_id];\n    }\n\n    /**\n     * @dev Register an address to be a voter.\n     * @param _addr Voter address to add\n     *\n     * Emits a {VoterRegistered} event.\n     *\n     * Requirements:\n     *\n     * - `msg.sender` must be the owner.\n     *\n     */\n    function addVoter(address _addr) external onlyOwner {\n        require(workflowStatus == WorkflowStatus.RegisteringVoters, 'Voters registration is not open yet');\n        require(voters[_addr].isRegistered != true, 'Already registered');\n\n        voters[_addr].isRegistered = true;\n        emit VoterRegistered(_addr);\n    }\n\n    /**\n     * @dev Add a new proposal to the list.\n     * @notice A registered address can submit a proposal during registration period.\n     * @param _desc Description of the proposal\n     *\n     * Emits a {ProposalRegistered} event.\n     %\n     * Requirements:\n     *\n     * - `status` must be ProposalsRegistrationStarted.\n     * - `msg.sender` must be a registered voter.\n     *\n     */\n    function addProposal(string memory _desc) external onlyVoters {\n        require(workflowStatus == WorkflowStatus.ProposalsRegistrationStarted, 'Proposals are not allowed yet');\n        require(keccak256(abi.encode(_desc)) != keccak256(abi.encode(\"\")), 'Vous ne pouvez pas ne rien proposer'); // facultatif\n        require(voters[msg.sender].proposalCount <= 5, 'Vous ne pouvez pas proposer plus de 5 propositions');\n\n        Proposal memory proposal;\n        proposal.description = _desc;\n        proposalsArray.push(proposal);\n        voters[msg.sender].proposalCount++;\n        emit ProposalRegistered(proposalsArray.length-1);\n    }\n\n    /**\n    * @dev Register a vote for proposal.\n    * @param _id Id of the proposal to vote for\n    *\n    * Emits a {Voted} event.\n    *\n    * Requirements:\n    *\n    * - `status` must be VotingSessionStarted.\n    * - `_proposalId` must exist.\n    * - `msg.sender` must have not vote yet.\n    * - `msg.sender` must be a registered voter.\n    *\n    */\n    function setVote( uint _id ) external onlyVoters {\n        require(workflowStatus == WorkflowStatus.VotingSessionStarted, 'Voting session havent started yet');\n        require(voters[msg.sender].hasVoted != true, 'You have already voted');\n        require(_id < proposalsArray.length, 'Proposal not found');\n\n        voters[msg.sender].votedProposalId = _id;\n        voters[msg.sender].hasVoted = true;\n        proposalsArray[_id].voteCount++;\n\n        emit Voted(msg.sender, _id);\n    }\n\n    /**\n    * @dev Set WorkflowStatus to ProposalsRegistrationStarted.\n    * @notice Voter can now register proposals.\n    *\n    * Emits a {WorkflowStatusChange} event.\n    *\n    * Requirements:\n    *\n    * - `status` must be RegisteringVoters.\n    * - `msg.sender` must be the owner.\n    *\n    */\n    function startProposalsRegistering() external onlyOwner {\n        require(workflowStatus == WorkflowStatus.RegisteringVoters, 'Registering proposals cant be started now');\n        workflowStatus = WorkflowStatus.ProposalsRegistrationStarted;\n        emit WorkflowStatusChange(WorkflowStatus.RegisteringVoters, WorkflowStatus.ProposalsRegistrationStarted);\n    }\n\n    /**\n    * @dev Set WorkflowStatus to ProposalsRegistrationEnded.\n    * @notice Voter can no longer register proposals.\n    *\n    * Emits a {WorkflowStatusChange} event.\n    *\n    * Requirements:\n    *\n    * - `status` must be ProposalsRegistrationStarted.\n    * - `msg.sender` must be the owner.\n    *\n    */\n    function endProposalsRegistering() external onlyOwner {\n        require(workflowStatus == WorkflowStatus.ProposalsRegistrationStarted, 'Registering proposals havent started yet');\n        workflowStatus = WorkflowStatus.ProposalsRegistrationEnded;\n        emit WorkflowStatusChange(WorkflowStatus.ProposalsRegistrationStarted, WorkflowStatus.ProposalsRegistrationEnded);\n    }\n\n    /**\n    * @dev Set WorkflowStatus to VotingSessionStarted.\n    * @notice Voter can now vote for proposal.\n    *\n    * Emits a {WorkflowStatusChange} event.\n    *\n    * Requirements:\n    *\n    * - `status` must be ProposalsRegistrationEnded.\n    * - `msg.sender` must be the owner.\n    *\n    */\n    function startVotingSession() external onlyOwner {\n        require(workflowStatus == WorkflowStatus.ProposalsRegistrationEnded, 'Registering proposals phase is not finished');\n        workflowStatus = WorkflowStatus.VotingSessionStarted;\n        emit WorkflowStatusChange(WorkflowStatus.ProposalsRegistrationEnded, WorkflowStatus.VotingSessionStarted);\n    }\n\n    /**\n    * @dev Set WorkflowStatus to VotingSessionEnded.\n    * @notice Voter can no longer vote for proposal.\n    *\n    * Emits a {WorkflowStatusChange} event.\n    *\n    * Requirements:\n    *\n    * - `status` must be VotingSessionStarted.\n    * - `msg.sender` must be the owner.\n    *\n    */\n    function endVotingSession() external onlyOwner {\n        require(workflowStatus == WorkflowStatus.VotingSessionStarted, 'Voting session havent started yet');\n        workflowStatus = WorkflowStatus.VotingSessionEnded;\n        emit WorkflowStatusChange(WorkflowStatus.VotingSessionStarted, WorkflowStatus.VotingSessionEnded);\n    }\n\n    /**\n    * @dev Find the winner of the vote.\n    * @notice Get the winner which is the proposal with the highest `voteCount`.\n    *\n    * Emits a {WorkflowStatusChange} event.\n    *\n    * Requirements:\n    *\n    * - `status` must be VotingSessionEnded.\n    * - `msg.sender` must be the owner.\n    *\n    */\n    function tallyVotes() external onlyOwner {\n        require(workflowStatus == WorkflowStatus.VotingSessionEnded, \"Current status is not voting session ended\");\n        uint _winningProposalId;\n        for (uint256 p = 0; p < proposalsArray.length; p++) {\n            if (proposalsArray[p].voteCount > proposalsArray[_winningProposalId].voteCount) {\n                _winningProposalId = p;\n            }\n        }\n\n        winningProposalId = _winningProposalId;\n\n        workflowStatus = WorkflowStatus.VotesTallied;\n        emit WorkflowStatusChange(WorkflowStatus.VotingSessionEnded, WorkflowStatus.VotesTallied);\n    }\n}",
  "sourcePath": "/Users/mickael/Perso/Developpement/Alyra/voting-app/contracts/Voting.sol",
  "compiler": {
    "name": "solc",
    "version": "0.8.12+commit.f00d7308.Emscripten.clang"
  },
  "schemaVersion": "3.4.7",
  "updatedAt": "2022-04-23T15:27:32.083Z",
  "networkType": "ethereum",
  "devdoc": {
    "kind": "dev",
    "methods": {
      "addProposal(string)": {
        "details": "Add a new proposal to the list.",
        "params": {
          "_desc": "Description of the proposal Emits a {ProposalRegistered} event. % Requirements: - `status` must be ProposalsRegistrationStarted. - `msg.sender` must be a registered voter."
        }
      },
      "addVoter(address)": {
        "details": "Register an address to be a voter.",
        "params": {
          "_addr": "Voter address to add Emits a {VoterRegistered} event. Requirements: - `msg.sender` must be the owner."
        }
      },
      "endProposalsRegistering()": {
        "details": "Set WorkflowStatus to ProposalsRegistrationEnded."
      },
      "endVotingSession()": {
        "details": "Set WorkflowStatus to VotingSessionEnded."
      },
      "getOneProposal(uint256)": {
        "details": "Return proposal associated with the id `_id`",
        "params": {
          "_id": "Proposal index Requirements: - `msg.sender`must be a registered voter"
        }
      },
      "getVoter(address)": {
        "details": "Return a voter associated with the address `_addr`",
        "params": {
          "_addr": "Voter address Requirements: - `msg.sender`must be a registered voter"
        }
      },
      "owner()": {
        "details": "Returns the address of the current owner."
      },
      "renounceOwnership()": {
        "details": "Leaves the contract without owner. It will not be possible to call `onlyOwner` functions anymore. Can only be called by the current owner. NOTE: Renouncing ownership will leave the contract without an owner, thereby removing any functionality that is only available to the owner."
      },
      "setVote(uint256)": {
        "details": "Register a vote for proposal.",
        "params": {
          "_id": "Id of the proposal to vote for Emits a {Voted} event. Requirements: - `status` must be VotingSessionStarted. - `_proposalId` must exist. - `msg.sender` must have not vote yet. - `msg.sender` must be a registered voter."
        }
      },
      "startProposalsRegistering()": {
        "details": "Set WorkflowStatus to ProposalsRegistrationStarted."
      },
      "startVotingSession()": {
        "details": "Set WorkflowStatus to VotingSessionStarted."
      },
      "tallyVotes()": {
        "details": "Find the winner of the vote."
      },
      "transferOwnership(address)": {
        "details": "Transfers ownership of the contract to a new account (`newOwner`). Can only be called by the current owner."
      }
    },
    "stateVariables": {
      "proposalsArray": {
        "details": "Array of proposals"
      },
      "voters": {
        "details": "Mapping from address to voter"
      },
      "winningProposalId": {
        "details": "Id of the winning proposal"
      },
      "workflowStatus": {
        "details": "Current status of the voting session"
      }
    },
    "version": 1
  },
  "userdoc": {
    "kind": "user",
    "methods": {
      "addProposal(string)": {
        "notice": "A registered address can submit a proposal during registration period."
      },
      "endProposalsRegistering()": {
        "notice": "Voter can no longer register proposals. Emits a {WorkflowStatusChange} event. Requirements: - `status` must be ProposalsRegistrationStarted. - `msg.sender` must be the owner."
      },
      "endVotingSession()": {
        "notice": "Voter can no longer vote for proposal. Emits a {WorkflowStatusChange} event. Requirements: - `status` must be VotingSessionStarted. - `msg.sender` must be the owner."
      },
      "startProposalsRegistering()": {
        "notice": "Voter can now register proposals. Emits a {WorkflowStatusChange} event. Requirements: - `status` must be RegisteringVoters. - `msg.sender` must be the owner."
      },
      "startVotingSession()": {
        "notice": "Voter can now vote for proposal. Emits a {WorkflowStatusChange} event. Requirements: - `status` must be ProposalsRegistrationEnded. - `msg.sender` must be the owner."
      },
      "tallyVotes()": {
        "notice": "Get the winner which is the proposal with the highest `voteCount`. Emits a {WorkflowStatusChange} event. Requirements: - `status` must be VotingSessionEnded. - `msg.sender` must be the owner."
      }
    },
    "version": 1
  }
}